:020000040000FA
:020000000828CE
:100010002320860185017A212A2080215220362042
:100020008C2152208C2130209C019D019E01A10138
:100030009F011F100030950000309600003097009F
:10004000A5208C21212883160030860000308500F1
:100050008312080007309200383093009420080083
:10006000083092000030930094200800083092007D
:100070000F3093009420080001309200013093006B
:100080009420003092001C3093009420080001302E
:10009000920000309300942000309200FD309300D5
:1000A000942008000130920000309300942000302A
:1000B0009200E2309300942008000130920000305A
:1000C0009300942000309200BD30930094200800EB
:1000D0000130920000309300942000309200A9304B
:1000E0009300942008000130920000309300942087
:1000F000003092008E30930094200800013092006E
:1001000000309300942000309200703093009420CF
:1001100008000130920000309300942000309200DB
:100120005E30930094200800051585100510120814
:10013000860005158510051405158514051013088E
:100140008600051585140514080049210D2152214A
:10015000A03015049A001B21522116089A001B2179
:10016000522117089A001B2152210D215221A13042
:1001700015049A001B2152211E1EED201E121E186E
:10018000F4289E1DCF28FF30A0002008190603196F
:10019000F028FE30A000200819060319F2289E114D
:1001A0001E1DFD289E1CF928A1011C1801219C0C74
:1001B000A10A2108083A031DD5281D1801219D0C0C
:1001C000A10A21080E3A031DDD289E101E119E155E
:1001D0001E16F02819088600EB281815262108009D
:1001E0008621BC281E14BC288621990BF4281E10D9
:1001F000BC2819089C009E14BC2819089D001E15D7
:10020000BC2819089300210892009420ED200800D2
:1002100018112621522115210800851552214D2142
:10022000051252218511492108004D21051285151D
:1002300052214921080008309B0018149A1F1810F9
:1002400035219A0D9B0B1D2940210800990108308A
:100250009B000310990D4021981819149B0B2A2913
:10026000181418191810352108008511181C3D297B
:10027000851552218511492108004D210512382983
:1002800085114921981485155221051E9810851154
:1002900008008316051683120800831605128312C0
:1002A0000516080053295429552956295729582934
:1002B00059295A295B295C295D295E295F29602912
:1002C00061290800FA3094000000940B64290800AA
:1002D000323095006221950B6A2908003230960071
:1002E0006821960B70290800FF308D0000008D0BEF
:1002F0007629080005308E0074218E0B7C290800B9
:100300001E308F007A218F0B8229080003308F0066
:100310007A218F0B88290800C83090007A21900B31
:040320008E2908001A
:02400E00F23F7F
:00000001FF
